{
  "contractName": "TestAdashe",
  "abi": [
    {
      "constant": true,
      "inputs": [
        {
          "name": "",
          "type": "uint256"
        },
        {
          "name": "",
          "type": "address"
        }
      ],
      "name": "paydate",
      "outputs": [
        {
          "name": "",
          "type": "uint256"
        }
      ],
      "payable": false,
      "stateMutability": "view",
      "type": "function",
      "signature": "0x0568fd5f"
    },
    {
      "constant": true,
      "inputs": [
        {
          "name": "",
          "type": "address"
        }
      ],
      "name": "collected",
      "outputs": [
        {
          "name": "",
          "type": "bool"
        }
      ],
      "payable": false,
      "stateMutability": "view",
      "type": "function",
      "signature": "0x38e43840"
    },
    {
      "constant": true,
      "inputs": [
        {
          "name": "",
          "type": "uint256"
        }
      ],
      "name": "adashes",
      "outputs": [
        {
          "name": "id",
          "type": "uint256"
        },
        {
          "name": "name",
          "type": "string"
        },
        {
          "name": "startDate",
          "type": "uint256"
        },
        {
          "name": "endDate",
          "type": "uint256"
        },
        {
          "name": "noOfPeople",
          "type": "uint256"
        },
        {
          "name": "monthlyObligation",
          "type": "uint256"
        },
        {
          "name": "takeHomePay",
          "type": "uint256"
        }
      ],
      "payable": false,
      "stateMutability": "view",
      "type": "function",
      "signature": "0x62dcf8a6"
    },
    {
      "constant": true,
      "inputs": [
        {
          "name": "",
          "type": "uint256"
        },
        {
          "name": "",
          "type": "address"
        }
      ],
      "name": "joinedAdashe",
      "outputs": [
        {
          "name": "",
          "type": "bool"
        }
      ],
      "payable": false,
      "stateMutability": "view",
      "type": "function",
      "signature": "0x8beb3601"
    },
    {
      "constant": true,
      "inputs": [
        {
          "name": "",
          "type": "uint256"
        }
      ],
      "name": "session",
      "outputs": [
        {
          "name": "adasheId",
          "type": "uint256"
        },
        {
          "name": "inSession",
          "type": "bool"
        },
        {
          "name": "nextPayment",
          "type": "uint256"
        },
        {
          "name": "currentMonth",
          "type": "uint256"
        },
        {
          "name": "noOfPayed",
          "type": "uint256"
        },
        {
          "name": "noOfCollected",
          "type": "uint256"
        }
      ],
      "payable": false,
      "stateMutability": "view",
      "type": "function",
      "signature": "0xa59ed07e"
    },
    {
      "constant": true,
      "inputs": [
        {
          "name": "",
          "type": "address"
        },
        {
          "name": "",
          "type": "uint256"
        }
      ],
      "name": "monthlyPayment",
      "outputs": [
        {
          "name": "",
          "type": "bool"
        }
      ],
      "payable": false,
      "stateMutability": "view",
      "type": "function",
      "signature": "0xbdd96402"
    },
    {
      "constant": true,
      "inputs": [
        {
          "name": "",
          "type": "address"
        },
        {
          "name": "",
          "type": "uint256"
        }
      ],
      "name": "deposits",
      "outputs": [
        {
          "name": "",
          "type": "uint256"
        }
      ],
      "payable": false,
      "stateMutability": "view",
      "type": "function",
      "signature": "0xd6d68177"
    },
    {
      "constant": true,
      "inputs": [],
      "name": "adasheCount",
      "outputs": [
        {
          "name": "",
          "type": "uint256"
        }
      ],
      "payable": false,
      "stateMutability": "view",
      "type": "function",
      "signature": "0xf200def7"
    },
    {
      "inputs": [],
      "payable": false,
      "stateMutability": "nonpayable",
      "type": "constructor",
      "signature": "constructor"
    },
    {
      "constant": false,
      "inputs": [
        {
          "name": "name",
          "type": "string"
        },
        {
          "name": "startDate",
          "type": "uint256"
        },
        {
          "name": "endDate",
          "type": "uint256"
        },
        {
          "name": "amountOfPeople",
          "type": "uint256"
        },
        {
          "name": "monthlyObligation",
          "type": "uint256"
        },
        {
          "name": "takeHomePay",
          "type": "uint256"
        }
      ],
      "name": "createAdashe",
      "outputs": [],
      "payable": false,
      "stateMutability": "nonpayable",
      "type": "function",
      "signature": "0xd08076ec"
    },
    {
      "constant": true,
      "inputs": [
        {
          "name": "adasheId",
          "type": "uint256"
        }
      ],
      "name": "getAdasheMembers",
      "outputs": [
        {
          "name": "",
          "type": "address[]"
        }
      ],
      "payable": false,
      "stateMutability": "view",
      "type": "function",
      "signature": "0xb2a6b289"
    },
    {
      "constant": false,
      "inputs": [
        {
          "name": "adasheId",
          "type": "uint256"
        },
        {
          "name": "member",
          "type": "address"
        }
      ],
      "name": "joinAdasheGroup",
      "outputs": [
        {
          "name": "",
          "type": "address[]"
        }
      ],
      "payable": false,
      "stateMutability": "nonpayable",
      "type": "function",
      "signature": "0x83a0d97b"
    },
    {
      "constant": false,
      "inputs": [
        {
          "name": "adasheId",
          "type": "uint256"
        },
        {
          "name": "dayss",
          "type": "uint256"
        }
      ],
      "name": "scheduleCollection",
      "outputs": [],
      "payable": false,
      "stateMutability": "nonpayable",
      "type": "function",
      "signature": "0x04fc46dc"
    },
    {
      "constant": false,
      "inputs": [
        {
          "name": "adasheId",
          "type": "uint256"
        },
        {
          "name": "payer",
          "type": "address"
        },
        {
          "name": "currentMonth",
          "type": "uint256"
        },
        {
          "name": "dayss",
          "type": "uint256"
        },
        {
          "name": "monthlyObligation",
          "type": "uint256"
        }
      ],
      "name": "pay",
      "outputs": [],
      "payable": true,
      "stateMutability": "payable",
      "type": "function",
      "signature": "0x0386d674"
    },
    {
      "constant": false,
      "inputs": [
        {
          "name": "adasheId",
          "type": "uint256"
        },
        {
          "name": "thisMonthReceiver",
          "type": "address"
        }
      ],
      "name": "collectFunds",
      "outputs": [],
      "payable": false,
      "stateMutability": "nonpayable",
      "type": "function",
      "signature": "0xc93822e1"
    },
    {
      "constant": false,
      "inputs": [
        {
          "name": "adasheId",
          "type": "uint256"
        },
        {
          "name": "inSession",
          "type": "bool"
        },
        {
          "name": "nextPayment",
          "type": "uint256"
        }
      ],
      "name": "adasheSession",
      "outputs": [],
      "payable": false,
      "stateMutability": "nonpayable",
      "type": "function",
      "signature": "0xc6b1b641"
    },
    {
      "constant": false,
      "inputs": [
        {
          "name": "adasheId",
          "type": "uint256"
        },
        {
          "name": "member",
          "type": "address"
        }
      ],
      "name": "checkCollectionDate",
      "outputs": [
        {
          "name": "",
          "type": "uint256"
        }
      ],
      "payable": false,
      "stateMutability": "nonpayable",
      "type": "function",
      "signature": "0x3d89cef8"
    }
  ],
  "bytecode": "0x60806040526000805534801561001457600080fd5b50611332806100246000396000f3fe6080604052600436106100e55763ffffffff7c01000000000000000000000000000000000000000000000000000000006000350416630386d67481146100ea57806304fc46dc1461012a5780630568fd5f1461015a57806338e43840146101a55780633d89cef8146101ec57806362dcf8a61461022557806383a0d97b146102f15780638beb36011461037a578063a59ed07e146103b3578063b2a6b28914610410578063bdd964021461043a578063c6b1b64114610473578063c93822e1146104ab578063d08076ec146104e4578063d6d68177146105ae578063f200def7146105e7575b600080fd5b610128600480360360a081101561010057600080fd5b50803590600160a060020a0360208201351690604081013590606081013590608001356105fc565b005b34801561013657600080fd5b506101286004803603604081101561014d57600080fd5b508035906020013561088d565b34801561016657600080fd5b506101936004803603604081101561017d57600080fd5b5080359060200135600160a060020a0316610941565b60408051918252519081900360200190f35b3480156101b157600080fd5b506101d8600480360360208110156101c857600080fd5b5035600160a060020a031661095e565b604080519115158252519081900360200190f35b3480156101f857600080fd5b506101936004803603604081101561020f57600080fd5b5080359060200135600160a060020a0316610973565b34801561023157600080fd5b5061024f6004803603602081101561024857600080fd5b503561099b565b6040518088815260200180602001878152602001868152602001858152602001848152602001838152602001828103825288818151815260200191508051906020019080838360005b838110156102b0578181015183820152602001610298565b50505050905090810190601f1680156102dd5780820380516001836020036101000a031916815260200191505b509850505050505050505060405180910390f35b3480156102fd57600080fd5b5061032a6004803603604081101561031457600080fd5b5080359060200135600160a060020a0316610a5e565b60408051602080825283518183015283519192839290830191858101910280838360005b8381101561036657818101518382015260200161034e565b505050509050019250505060405180910390f35b34801561038657600080fd5b506101d86004803603604081101561039d57600080fd5b5080359060200135600160a060020a0316610c18565b3480156103bf57600080fd5b506103dd600480360360208110156103d657600080fd5b5035610c38565b604080519687529415156020870152858501939093526060850191909152608084015260a0830152519081900360c00190f35b34801561041c57600080fd5b5061032a6004803603602081101561043357600080fd5b5035610c74565b34801561044657600080fd5b506101d86004803603604081101561045d57600080fd5b50600160a060020a038135169060200135610ce3565b34801561047f57600080fd5b506101286004803603606081101561049657600080fd5b50803590602081013515159060400135610d03565b3480156104b757600080fd5b50610128600480360360408110156104ce57600080fd5b5080359060200135600160a060020a0316610deb565b3480156104f057600080fd5b50610128600480360360c081101561050757600080fd5b81019060208101813564010000000081111561052257600080fd5b82018360208201111561053457600080fd5b8035906020019184600183028401116401000000008311171561055657600080fd5b91908080601f01602080910402602001604051908101604052809392919081815260200183838082843760009201919091525092955050823593505050602081013590604081013590606081013590608001356110d6565b3480156105ba57600080fd5b50610193600480360360408110156105d157600080fd5b50600160a060020a0381351690602001356111a9565b3480156105f357600080fd5b506101936111c6565b6000858152600860209081526040808320600160a060020a038816845290915290205460ff16151560011461067b576040805160e560020a62461bcd02815260206004820152601960248201527f796f75206861766520746f20626520696e20612067726f757000000000000000604482015290519081900360640190fd5b600160a060020a038416600090815260056020908152604080832086845290915290205460ff16156106f7576040805160e560020a62461bcd02815260206004820152601260248201527f796f752063616e74207061792074776963650000000000000000000000000000604482015290519081900360640190fd5b600085815260036020526040902060020154421161075f576040805160e560020a62461bcd02815260206004820152600b60248201527f6e6f742064756520796574000000000000000000000000000000000000000000604482015290519081900360640190fd5b600085815260036020526040902060019081015460ff161515146107cd576040805160e560020a62461bcd02815260206004820152601f60248201527f746869732061646173686520686173206e6f7420737461727465642079657400604482015290519081900360640190fd5b60018054600160a060020a0390811660009081526007602090815260408083208a845282528083208054870190559288168252600581528282208783528152828220805460ff191690941790935587815260028352818120600490810154600390945291902001548291141561086c57600086815260036020819052604082206002810180548701905560048101929092550180546001019055610885565b6000868152600360205260409020600401805460010190555b505050505050565b60008281526002602052604090206004810154600790910154146108b057600080fd5b6000828152600260208190526040822001548201905b60008481526002602052604090206007015481101561093b576000848152600460209081526040808320600290925282206007018054859391908590811061090a57fe5b6000918252602080832090910154600160a060020a03168352820192909252604001902055908201906001016108c6565b50505050565b600460209081526000928352604080842090915290825290205481565b60066020526000908152604090205460ff1681565b6000918252600460209081526040808420600160a060020a0393909316845291905290205490565b60026020818152600092835260409283902080546001808301805487519281161561010002600019011695909504601f8101859004850282018501909652858152909491939092909190830182828015610a365780601f10610a0b57610100808354040283529160200191610a36565b820191906000526020600020905b815481529060010190602001808311610a1957829003601f168201915b5050505050908060020154908060030154908060040154908060050154908060060154905087565b6000828152600860209081526040808320600160a060020a038516845290915290205460609060ff1615610adc576040805160e560020a62461bcd02815260206004820152601c60248201527f7573657220616c726561647920696e206164617368652067726f757000000000604482015290519081900360640190fd5b6000838152600260205260409020600481015460079091015410610b4a576040805160e560020a62461bcd02815260206004820152601b60248201527f736f727279207468652067726f7570206973206e6f772066756c6c0000000000604482015290519081900360640190fd5b6000838152600260208181526040808420600701805460018082018355828752848720909101805473ffffffffffffffffffffffffffffffffffffffff1916600160a060020a038a16908117909155898752600885528387209087528452828620805460ff1916909117905593879052918152825482518183028101830190935280835291929190830182828015610c0b57602002820191906000526020600020905b8154600160a060020a03168152600190910190602001808311610bed575b5050505050905092915050565b600860209081526000928352604080842090915290825290205460ff1681565b6003602081905260009182526040909120805460018201546002830154938301546004840154600590940154929460ff90921693919290919086565b600081815260026020908152604091829020600701805483518184028101840190945280845260609392830182828015610cd757602002820191906000526020600020905b8154600160a060020a03168152600190910190602001808311610cb9575b50505050509050919050565b600560209081526000928352604080842090915290825290205460ff1681565b6000838152600260205260409020600481015460079091015414610d71576040805160e560020a62461bcd02815260206004820152601860248201527f5468652067726f7570206973206f74207965742066756c6c0000000000000000604482015290519081900360640190fd5b6040805160c08101825284815292151560208085019182528483019384526000606086018181526080870182815260a088018381529883526003938490529490912095518655915160018601805460ff19169115159190911790559251600285015551918301919091555160048201559051600590910155565b6000828152600860209081526040808320600160a060020a038516845290915290205460ff161515600114610e6a576040805160e560020a62461bcd02815260206004820152601960248201527f796f75206861766520746f20626520696e20612067726f757000000000000000604482015290519081900360640190fd5b6000828152600260209081526040808320600490810154600390935292209091015414610ee1576040805160e560020a62461bcd02815260206004820152601760248201527f576169742074696c6c2065766572796f6e652070617973000000000000000000604482015290519081900360640190fd5b600160a060020a03811660009081526006602052604090205460ff16151560011415610f0c57600080fd5b600082815260036020526040902060019081015460ff16151514610f7a576040805160e560020a62461bcd02815260206004820152601f60248201527f746869732061646173686520686173206e6f7420737461727465642079657400604482015290519081900360640190fd5b60008281526002602090815260408083206004015460039092529091206005015410611016576040805160e560020a62461bcd02815260206004820152602260248201527f416c6c2075736572732068617320636f6c6c657465642074686572652066756e60448201527f6473000000000000000000000000000000000000000000000000000000000000606482015290519081900360840190fd5b600154600160a060020a039081166000908152600760209081526040808320868452909152808220805490839055905190928416916108fc841502918491818181858888f19350505050158015611071573d6000803e3d6000fd5b50600160a060020a0382166000908152600660209081526040808320805460ff191660019081179091558684526003808452828520600501805490920191829055600284529190932060040154915214156110d157600083905260036020525b505050565b600080546001908101808355604080516101008101825282815260208082018c81528284018c9052606083018b9052608083018a905260a0830189905260c083018890528351878152808301855260e0840152938652600281529190942084518155915180519293611150939085019291909101906111cc565b5060408201516002820155606082015160038201556080820151600482015560a0820151600582015560c0820151600682015560e0820151805161119e91600784019160209091019061124a565b505050505050505050565b600760209081526000928352604080842090915290825290205481565b60005481565b828054600181600116156101000203166002900490600052602060002090601f016020900481019282601f1061120d57805160ff191683800117855561123a565b8280016001018555821561123a579182015b8281111561123a57825182559160200191906001019061121f565b506112469291506112b8565b5090565b8280548282559060005260206000209081019282156112ac579160200282015b828111156112ac578251825473ffffffffffffffffffffffffffffffffffffffff1916600160a060020a0390911617825560209092019160019091019061126a565b506112469291506112d5565b6112d291905b8082111561124657600081556001016112be565b90565b6112d291905b8082111561124657805473ffffffffffffffffffffffffffffffffffffffff191681556001016112db56fea165627a7a723058202956c072821f9b825a755e39ebeafabd313db232309e292feb8e534154aaeb250029",
  "source": "pragma solidity ^0.5.0;\r\n\r\n\r\ncontract TestAdashe{\r\n  uint public adasheCount = 0;\r\n  \r\n  \r\n  address agent;\r\n // uint public b = a + 20 seconds;\r\n  //uint public c =  block.timestamp + 20;\r\n\r\n   \r\n    //list of adashes available\r\n      //each adashe contains \r\n      //start date\r\n      //end date\r\n      //amount of people\r\n      //monthly obligations\r\n      //take home pay\r\n      //accounts participants array\r\n    \r\n      struct Adashe {\r\n          uint id;\r\n          string name;\r\n          uint256 startDate;\r\n          uint256 endDate;\r\n          uint noOfPeople;\r\n          uint monthlyObligation;\r\n          uint takeHomePay;\r\n          address[] adasheMembers;\r\n       \r\n \r\n          \r\n\r\n      }\r\n      struct SessionStarted{\r\n          uint adasheId;\r\n          bool inSession;\r\n          uint nextPayment;\r\n          uint currentMonth;\r\n          uint noOfPayed;\r\n          uint noOfCollected;\r\n      }\r\n\r\n    \r\n      mapping(uint => Adashe) public adashes;\r\n       mapping(uint => SessionStarted) public session;\r\n      //when each user will collect their   \r\n     // mapping(address => uint256) public paydate;\r\n      mapping(uint => mapping(address => uint)) public paydate;\r\n\r\n      mapping(address => mapping(uint => bool)) public monthlyPayment;\r\n\r\n      mapping(address => bool) public collected;\r\n\r\n     \r\n      mapping(address => mapping(uint => uint)) public deposits;\r\n\r\n     \r\n      mapping(uint=> mapping(address => bool)) public joinedAdashe;\r\n\r\n      constructor() public {\r\n       //createAdashe(\"Adashe 1\", 1654708484, 1654722884, 3, 100, 300);\r\n      // uint  s = block.timestamp + 10 minutes;\r\n       //SessionStarted(1, true, s);\r\n      }\r\n\r\n       //create adashe group - system\r\n      function createAdashe(\r\n        string memory name,\r\n        uint256 startDate, \r\n        uint256 endDate, \r\n        uint amountOfPeople, \r\n        uint monthlyObligation,\r\n        uint takeHomePay\r\n        \r\n       // address[] memory adasheMembers\r\n        \r\n        )\r\n        public {\r\n          adasheCount ++;\r\n          adashes[adasheCount] = Adashe(adasheCount,name,startDate,endDate,amountOfPeople,monthlyObligation,takeHomePay,  new address[](0));\r\n        }\r\n\r\n       \r\n\r\n\r\n        //getter functon for returning array in a sturcut \r\n        //use adashe id instead of count\r\n        function getAdasheMembers(uint adasheId) public view returns(address[] memory){\r\n          return adashes[adasheId].adasheMembers;\r\n\r\n        }\r\n\r\n\r\n        //oin adahse group - usere6320117E1818faFD3c51A5C303B1c9D76De97d9\r\n        //use adashe id instead of adashecount\r\n        \r\n        \r\n        //change member to msg.sender\r\n        function joinAdasheGroup(uint adasheId, address member) public returns(address[] memory){\r\n          //make sure user can only oin once no dplicate addresses in array\r\n          //user not in other adashe groups\r\n          require(joinedAdashe[adasheId][member] == false, 'user already in adashe group');\r\n          //if noofpeople sorry group full\r\n          require(adashes[adasheId].adasheMembers.length < adashes[adasheId].noOfPeople, 'sorry the group is now full' );\r\n          adashes[adasheId].adasheMembers.push(member);\r\n          joinedAdashe[adasheId][member] = true;\r\n\r\n          return adashes[adasheId].adasheMembers;\r\n        }\r\n\r\n         //create time/schedule and when everyone collects  \r\n         //use adashe id instead of count b4 deploying\r\n        function scheduleCollection(uint adasheId, uint dayss) public {\r\n          require(adashes[adasheId].adasheMembers.length == adashes[adasheId].noOfPeople);\r\n          uint daysAdded = adashes[adasheId].startDate + dayss;\r\n          for (uint i = 0; i < adashes[adasheId].adasheMembers.length; i++ ){\r\n\r\n            //uint timeAdd = i + days;\r\n\r\n            //use the startdate instead of start adashe b4 deploying\r\n            paydate[adasheId][adashes[adasheId].adasheMembers[i]] = daysAdded;\r\n            daysAdded = daysAdded + dayss;\r\n          }\r\n          //return paydate[address(0xe6320117E1818faFD3c51A5C303B1c9D76De97d9)];\r\n         \r\n\r\n           //return adashes[adasheCount].adasheMembers.length;\r\n         \r\n        }\r\n\r\n      \r\n\r\n         //pay monthly obligation = system/escrow\r\n         //check paydates\r\n         //update mappimg monthly payment when user pays\r\n         //require it has not reached end date\r\n\r\n         //require member is part of the gropip\r\n         \r\n        function pay(uint adasheId, address payer, uint currentMonth, uint dayss, uint monthlyObligation) public payable {\r\n          //make sure user does not pay twice\r\n          require(joinedAdashe[adasheId][payer] == true, 'you have to be in a group');\r\n          require(monthlyPayment[payer][currentMonth] == false, 'you cant pay twice');\r\n          require(block.timestamp > session[adasheId].nextPayment, 'not due yet');\r\n          require(session[adasheId].inSession == true, 'this adashe has not started yet');\r\n          //require(block.timestamp <= adashes[adasheId].endDate);\r\n\r\n          \r\n          //increment this month deposit \r\n          uint amount = monthlyObligation;\r\n          deposits[agent][adasheId] = deposits[agent][adasheId] + amount;\r\n\r\n\r\n          monthlyPayment[payer][currentMonth] = true;\r\n\r\n          if (session[adasheId].noOfPayed == adashes[adasheId].noOfPeople){\r\n            session[adasheId].nextPayment = session[adasheId].nextPayment + dayss;\r\n            session[adasheId].noOfPayed = 0;\r\n            session[adasheId].currentMonth =  session[adasheId].currentMonth + 1;\r\n          }\r\n          \r\n          else{\r\n           session[adasheId].noOfPayed = session[adasheId].noOfPayed + 1;\r\n          }\r\n\r\n        }\r\n\r\n        //reqquire enddate not reached\r\n      //check user is next in list \r\n       //pay the users adashe according to list to users account - agent\r\n        function collectFunds(uint adasheId, address payable thisMonthReceiver)  public {\r\n\r\n           require(joinedAdashe[adasheId][thisMonthReceiver] == true, 'you have to be in a group');  \r\n          // makesure everyone has  paid\r\n          require(session[adasheId].noOfPayed == adashes[adasheId].noOfPeople, 'Wait till everyone pays');\r\n\r\n          //make sure user has not collected before\r\n          require(collected[thisMonthReceiver] != true);\r\n\r\n          //withdraw funds before the next payment date\r\n          //require(paydate[thisMonthReceiver] + 28 days < session[adasheId].nextPayment);\r\n\r\n          //require address is next in line for payments\r\n\r\n          require(session[adasheId].inSession == true, 'this adashe has not started yet');\r\n\r\n          require(session[adasheId].noOfCollected < adashes[adasheId].noOfPeople, 'All users has colleted there funds' );\r\n          uint payment = deposits[agent][adasheId];\r\n          //payment has to be same as takehome pay\r\n          //no of payed bak to  zer0\r\n          deposits[agent][adasheId] = 0;\r\n          thisMonthReceiver.transfer(payment);\r\n\r\n          collected[thisMonthReceiver] = true;\r\n\r\n          session[adasheId].noOfCollected = session[adasheId].noOfCollected + 1;\r\n\r\n          if(session[adasheId].noOfCollected == adashes[adasheId].noOfPeople) {\r\n           session[adasheId].inSession == false;\r\n          }\r\n\r\n\r\n\r\n        } \r\n         \r\n        function adasheSession(uint adasheId, bool inSession, uint nextPayment)  public  {\r\n          //require group full \r\n\r\n          require(adashes[adasheId].adasheMembers.length == adashes[adasheId].noOfPeople, 'The group is ot yet full');\r\n          session[adasheId] = SessionStarted(adasheId, inSession, nextPayment, 0, 0, 0);\r\n          //sess[adasheId].inSession = session;\r\n         \r\n        }\r\n\r\n\r\n        function checkCollectionDate(uint adasheId, address member)  public returns(uint){\r\n          uint dateOfCollection = paydate[adasheId][member];\r\n          return dateOfCollection;\r\n        }\r\n\r\n      \r\n\r\n        // uint adasheId;\r\n        //   bool inSession;\r\n        //   uint nextPayment;\r\n        //   uint currentMonth;\r\n        //   uint noOfPayed;\r\n        //   uint noOfCollected;\r\n\r\n\r\n        //withraw from adashe group before the start date\r\n        \r\n    //who can withdraw \r\n     //an array that represents who to pay next\r\n\r\n\r\n\r\n    //functions *************\r\n\r\n   \r\n\r\n   \r\n\r\n   \r\n    //create payment table check whether they have paid \r\n       //each adashe has id create list based nuber of individals\r\n       //month 1   account 1. payed month 1 account 2 payed\r\n       //month 2 account 1/ not payed month 2 account 2 payed\r\n    \r\n    //withdraw funds - user\r\n    //scenario when list is not full and deadlibe is coming full grup with compurer\r\n\r\n\r\n\r\n}\r\n\r\n\r\n\r\n\r\n\r\n\r\n\r\n\r\n\r\n\r\n\r\n\r\n",
  "sourcePath": "C:/Users/Halima/Desktop/adashe/contracts/TestAdashe.sol",
  "compiler": {
    "name": "solc",
    "version": "0.5.0+commit.1d4f565a.Emscripten.clang"
  },
  "schemaVersion": "3.0.2",
  "updatedAt": "2022-06-13T10:51:25.538Z",
  "devdoc": {
    "methods": {}
  },
  "userdoc": {
    "methods": {}
  }
}